:100000000C9440000C9468000C9468000C946800F8
:100010000C9468000C9468000C9468000C946800C0
:100020000C9468000C9468000C9468000C946800B0
:100030000C9468000C9468000C9468000C946800A0
:100040000C9468000C9468000C9468000C94680090
:100050000C9468000C9468000C9468000C94680080
:100060000C9468000C9468000C9468000C94680070
:100070000C9468000C9468000C9468007814801448
:1000800011241FBECFEFD8E0DEBFCDBF15E0A0E04A
:10009000B1E0E0EDFEE202C005900D92A438B10798
:1000A000D9F728E0A4E8B5E001C01D92A03AB20754
:1000B000E1F710E0CFE3D0E004C02197FE010E94F9
:1000C000A814CE33D107C9F70E941B140C94B7169D
:1000D0000C940000529808954A9B0AC089EF90E062
:1000E0000197F1F700C0000088274A998395089589
:1000F00080E00895E9E6F0E080818C7F80830895B8
:100100006130710559F06230710561F0672B29F497
:100110000E947A0083E08093690008950E947A002B
:1001200082E0F9CF0E947A0081E0F5CF1F93CF9350
:10013000DF93EC01142F798368834A83F90160818E
:1001400071817C836B830E948000E881F98120812A
:1001500041E050E001C0440F1A95EAF74095422370
:100160004083DF91CF911F910895FB01808181151C
:1001700011F0E89A0895E8980895089580EA809328
:1001800000011092B90080E28093B8000895FC014C
:1001900080E88083CF010C94BE00843028F4880F5F
:1001A000806A8093000108958FEF0895FA0194EA20
:1001B00024E89093BC008091BC0087FFFCCF809125
:1001C00000018093BB002093BC008091BC0087FF9E
:1001D000FCCF8091B900883161F784EA8093BC003C
:1001E0008091BC0087FFFCCF809100018093BB0011
:1001F00084E88093BC008091BC0087FFFCCF7093A3
:10020000BB0084E88093BC008091BC0087FFFCCFDA
:100210006093BB0084E88093BC008091BC0087FFA2
:10022000FCCF8091BC0087FFFCCF84EA8093BC00A8
:100230008091BC0087FFFCCF809100018F5F80938D
:10024000BB0084E88093BC008091BC0087FFFCCF9A
:1002500084E88093BC008091BC0087FFFCCF809134
:10026000BB00808384E98093BC0080E0089594EA19
:1002700034E89093BC008091BC0087FFFCCF809154
:1002800000018093BB003093BC008091BC0087FFCD
:10029000FCCF8091B900883161F784EA8093BC007B
:1002A0008091BC0087FFFCCF809100018093BB0050
:1002B00084E88093BC008091BC0087FFFCCF7093E2
:1002C000BB0084E88093BC008091BC0087FFFCCF1A
:1002D0006093BB0084E88093BC008091BC0087FFE2
:1002E000FCCF84EA8093BC008091BC0087FFFCCFE8
:1002F000809100018F5F8093BB0084E88093BC00F5
:100300008091BC0087FFFCCF84EC211105C084E9FB
:100310008093BC0080E00895213009F484E8809344
:10032000BC009091BC0097FFFCCFFA019091BB00FC
:1003300091932150AF01E9CF94EA24E89093BC0057
:100340008091BC0087FFFCCF809100018093BB00AF
:100350002093BC008091BC0087FFFCCF8091B90046
:10036000883161F784EA8093BC008091BC0087FFEC
:10037000FCCF809100018093BB0084E88093BC0097
:100380008091BC0087FFFCCF7093BB0084E8809312
:10039000BC008091BC0087FFFCCF6093BB0084E869
:1003A0008093BC008091BC0087FFFCCF4093BB00D2
:1003B00084E88093BC008091BC0087FFFCCF84E977
:1003C0008093BC0080E00895CF93DF93FB01260F5C
:1003D000372F311DEC0188818150990B862B9F2B83
:1003E0002817390718F09C012F5F3F4F822F8E1B73
:1003F00024EA34E82093BC009091BC0097FFFCCF26
:10040000909100019093BB003093BC009091BC0090
:1004100097FFFCCF9091B900983161F794EA9093DF
:10042000BC009091BC0097FFFCCF9091000190938D
:10043000BB0094E89093BC009091BC0097FFFCCF68
:10044000F093BB0094E89093BC009091BC0097FFA0
:10045000FCCFE093BB0094E89093BC009091BC006B
:1004600097FFFCCF982F24E8911106C094E9909350
:10047000BC00DF91CF910895DA013D913093BB002C
:100480002093BC003091BC0037FFFCCF9150AD01F0
:10049000EBCFDF92EF92FF920F931F93CF93DF93F7
:1004A000D82ED92F7B018A01C22F2C2FA801B7018A
:1004B0008D2D9D2F0E94E401E80EF11CC81B080F32
:1004C000111DC111F2CF80E0DF91CF911F910F91EB
:1004D000FF90EF90DF9008951092C5008FEC80930D
:1004E000C40080E28093C00088E18093C10086E070
:1004F0008093C200089508958091C00085FFFCCFCD
:100500006093C60008951092C0001092C10010922E
:10051000C20008950F931F93CF93DF93182F092FD5
:10052000EB016991611105C0DF91CF911F910F918E
:100530000895812F902F0E947C02F3CF8091C000FC
:1005400087FFFCCF8091C600089510927C0086E85A
:1005500080937A00089510927A00089580917C002B
:10056000807E80937C0080917C006770862B8093D6
:100570007C0080917A00806480937A0080917A0078
:1005800084FFFCCF80917A00806180937A00209173
:1005900078008091790090E0982F8827820F911D34
:1005A00008950895FC0160835283418340345105CE
:1005B00021F190F441305105B1F048305105C9F0B6
:1005C0001092B0001092B2008091B10088608093C8
:1005D000B1006093B30008954115514089F78091AF
:1005E000B100846003C08091B10081608093B1004C
:1005F000E7CF8091B1008260F9CF8091B100836034
:10060000F5CF0895E0E7F0E080818260808308956F
:10061000E0E7F0E080818D7F808308951092B20042
:1006200008950F93CF93DF93EC010E942413CE0122
:1006300005960E946C02CE0106960E9453131986FD
:100640001886FE013A968AE5DF011D928A95E9F740
:10065000E65AFF4F8AE590E08193919311821082D0
:100660003396118210823396108205E024E048E22E
:1006700050E067E270E0CE0183599F4F0E9417124D
:1006800066E0CE018B589F4F0E94D50CCE01885852
:100690009F4F0E946A00FE01E358FF4F108232967E
:1006A000119210828FEF818332961082818332966D
:1006B00010828183329610828183329610828183E8
:1006C0003296108281833296119281E0819310825A
:1006D000C157DF4F1882DF91CF910F91089581B1FB
:1006E000807E81B9089580B18F710895DF92EF9275
:1006F000FF920F931F93CF93DF9300D0CDB7DEB758
:10070000F82E192FE62ED42E622F1A821982AE01EE
:100710004F5F5F4F0E943D1381E090E09A83898391
:10072000AE014F5F5F4F602F8F2D912F0E943D13C1
:100730004D2D6E2D8F2D912F0F900F90DF91CF911A
:100740001F910F91FF90EF90DF900C9432132F9236
:100750003F924F925F926F927F928F929F92AF9251
:10076000BF92CF92DF92EF92FF920F931F93CF939E
:10077000DF93CDB7DEB729970FB6F894DEBF0FBE73
:10078000CDBF88879987E884F9842DE7E20EF11CB4
:1007900081E0D7018C9388849984BFE88B0E911CEB
:1007A000F401108211E0F1E0F983C12CD12CA12CCD
:1007B000B12C6884798429E6620E711C862F90E042
:1007C0009B838A832884398496E6290E311CA88568
:1007D000B985AC59BF4FBD83AC8348845984B8E612
:1007E0004B0E511CE885F9853596FF83EE83FFEFAC
:1007F000AF1ABF0AD3018D919C911197EA81FB81B9
:100800008E179F07D8F01D921C9229960FB6F89468
:10081000DEBF0FBECDBFDF91CF911F910F91FF9033
:10082000EF90DF90CF90BF90AF909F908F907F9090
:100830006F905F904F903F902F900895D1018D91D0
:100840009C91009721F4EC81FD8180819181019739
:10085000D1018D939C93E885F9858E0F9F1FDC0154
:100860001A968C91F201808380B18F71A885B98529
:1008700017968C93F40160818E819F810E947C0287
:10088000A885B98517968C918F3199F5F7019081DC
:10089000911579F1D4018C918F5F8C938931E0F0BF
:1008A000A885B985A058BF4F8C91811115C091E0E2
:1008B000E885F985E158FF4F9083E885F985E4598B
:1008C000FF4F80818F5F80839C93E885F985EF5788
:1008D000FF4F8083F7011082D201EC91E15001E0DB
:1008E00021E0E83108F0CAC0F0E0EC53F94E0C9476
:1008F000A814F4E2AF16B10478F32981211539F078
:100900008111EACF3FEFC31AD30A1982E5CF92E4EF
:10091000A916B10408F31115F9F2811103C0AFEF64
:10092000CA1ADA0AB2E0CB16D10438F1A885B98523
:10093000AA57BF4F8C9181111CC0F701808181158E
:10094000C1F082E0E885F985E158FF4F8083E885B2
:10095000F985E459FF4F80818F5F808391E09C93FC
:10096000E885F985E957FF4F8083D7011C9210E095
:10097000B3CFB2E0CB16D104D1F3A885B985AC577B
:10098000BF4F8C918111F3CFF7018081811579F3ED
:1009900083E0E885F985E158FF4F8083E885F98594
:1009A000E459FF4F80818F5F8083F701108291E0CF
:1009B0009C93E885F985EB57FF4F8083D8CF46E9B4
:1009C00068E7888599850E94760384E190E0E1EEEE
:1009D000F4E03197F1F700C000000197C1F701E0A2
:1009E00021E042E362E3888599850E94760381EEE7
:1009F00094E00197F1F700C00000A1EEB4E0119778
:100A0000F1F700C00000E1EEF4E03197F1F700C02B
:100A1000000081EE94E00197F1F700C00000A1EE24
:100A2000B4E01197F1F700C00000F30180819181DB
:100A3000019691838083DBCE40E06EE688859985C0
:100A40000E94760384E190E0A1EEB4E01197F1F703
:100A500000C000000197C1F7C2CF4EE660E0888574
:100A600099850E94760384E190E0E1EEF4E031970D
:100A7000F1F700C000000197C1F7B1CF46E962E885
:100A8000888599850E94760384E190E0A1EEB4E028
:100A90001197F1F700C000000197C1F7A0CFEF92C6
:100AA000FF920F93CF93DF93EC017C018EE7E80E6A
:100AB000F11C80B18F718F83F701808101E021E00B
:100AC0004EE660E0811102C040E06EE6CE010E9479
:100AD00076038F818C3011F0863059F780B18F7199
:100AE0008F8301E021E042E864E6CE010E947603B4
:100AF0008F81813011F0803189F780B18F718F83C0
:100B0000F701808101E021E040E06EE6811113C031
:100B10004EE660E0CE010E94760384E190E0E1EED3
:100B2000F4E03197F1F700C000000197C1F701E050
:100B300021E042E362E3CE010E9476038F818C3094
:100B400011F08630D1F680B18F718F8300E020E004
:100B500046E968E7CE010E9476038F818111F3CFC9
:100B600001E021E046E968E7CE010E9476038CE2CD
:100B700091E0E1EEF4E03197F1F700C00000019759
:100B8000C1F7DF91CF910F91FF90EF9008950F93F0
:100B9000CF93DF93EC0163E070E083599F4F0E9495
:100BA000CC12CE0106960E94DF1301E021E040E066
:100BB00060E0CE010E94760380E89CE0E1EEF4E084
:100BC0003197F1F700C000000197C1F701E021E083
:100BD00048EC68ECCE010E94760388E592E0E1EEF5
:100BE000F4E03197F1F700C000000197C1F7DF9101
:100BF000CF910F9108950F931F93CF93DF93EC0143
:100C00008C0108581F4FC359DF4FC8010E946C0068
:100C1000811549F060E070E0CE01DF91CF911F9126
:100C20000F910C94CC1261E070E0CE010E94CC12C6
:100C300085EA90E0E9E6F8E13197F1F700C00000BD
:100C40000197C1F760E070E0CE010E94CC1285EA06
:100C500090E0E9E6F8E13197F1F700C00000019774
:100C6000C1F7D3CF2F923F924F925F926F927F92B4
:100C70008F929F92AF92BF92CF92DF92EF92FF92AC
:100C80000F93CF93DF93CDB7DEB72A970FB6F894C3
:100C9000DEBF0FBECDBF89879A87A984BA842DE7AE
:100CA000A20EB11C81E0D5018C93C12CD12C89847A
:100CB0009A84B9E68B0E911CE62FF0E0FA83E98363
:100CC00029843A84F6E62F0E311C29853A852C5961
:100CD0003F4F3C832B8349845A8438E6430E511C92
:100CE000E984FA848CE6E80EF11CA985BA85A1583E
:100CF000BF4FBE83AD8369847A84B2E86B0E711CEA
:100D0000E985FA85ED57FF4FF887EF83D4018D9180
:100D10009C911197E981FA818E179F07D0F01D925F
:100D20001C922A960FB6F894DEBF0FBECDBFDF919E
:100D3000CF910F91FF90EF90DF90CF90BF90AF9049
:100D40009F908F907F906F905F904F903F902F90EB
:100D50000895D1018D919C91009721F4EB81FC8144
:100D6000808191810197D1018D939C93E985FA85CA
:100D70008E0F9F1FDC011A968C91F201808380B147
:100D8000282F2F71A985BA8517962C93F50190818C
:100D9000211153C0911509F443C0FFEFCF1ADF0AA8
:100DA00021E4C216D104E0F1D7018C91833011F017
:100DB000853099F401E021E040E060E089859A8582
:100DC0000E94760389859A850E94FB05E985FA854C
:100DD000E457FF4F81E08083A4CFD3018C91811130
:100DE0001FC084E0E985FA85E158FF4F808367E5FD
:100DF00071E089859A8505960E948A02F7018081B3
:100E00008F5F808391E0D3019C93E985FA85ED574C
:100E1000FF4F8083F501108289859A850E944F05D6
:100E2000D201EC91E15001E021E0E83108F08BC003
:100E3000F0E0E452F94E0C94A814911589F3F1E412
:100E4000CF16D10468F7D7019C919F5F9C93982F90
:100E50009D71913019F08771803199F467E571E0E7
:100E600089859A8505960E948A0284E0ED81FE813B
:100E7000808381E0D3018C93F7018081AF81B885B5
:100E80008C93F5011082CCCF46E968E789859A8575
:100E90000E94760384E190E0E1EEF4E03197F1F70F
:100EA00000C000000197C1F701E021E042E362E3E6
:100EB00089859A850E94760381EE94E00197F1F787
:100EC00000C00000A1EEB4E01197F1F700C00000EF
:100ED000E1EEF4E03197F1F700C0000081EE94E01C
:100EE0000197F1F700C00000A1EEB4E01197F1F70F
:100EF00000C00000F401808191810196918380837C
:100F000005CF40E06EE689859A850E94760384E1EC
:100F100090E0A1EEB4E01197F1F700C00000019756
:100F2000C1F7C2CF4EE660E089859A850E947603BC
:100F300084E190E0E1EEF4E03197F1F700C00000C9
:100F40000197C1F7B1CF46E962E889859A850E9489
:100F5000760384E190E0A1EEB4E01197F1F700C0D0
:100F600000000197C1F7A0CF3F924F925F926F921E
:100F70007F928F929F92AF92BF92CF92DF92EF9229
:100F8000FF920F931F93CF93DF93EC017C018DE6CB
:100F9000E80EF11C60E070E0C7010E94CC12CE01A7
:100FA0000E94C705C12CD12C312C2E01E5E74E0E35
:100FB000511C8AE3682E82E0782E4E01FEE78F0EE8
:100FC000911C80B18F718F83C2010E94DD0CC20120
:100FD0000E94DA0C8E3688F001E021E040E060E00B
:100FE000CE010E94760361E070E0C7010E94CC123E
:100FF0003324339400E010E038C0311449F18233D7
:1010000038F563E070E0C7010E94CC12CE01DF9199
:10101000CF911F910F91FF90EF90DF90CF90BF90F5
:10102000AF909F908F907F906F905F904F903F9088
:101030000C94C70560E070E0C7010E94CC120F5FFE
:101040001F4F0A151B05B1F78FEFC81AD80AD2CF68
:101050005301AC18BD0800E010E0F3CF61E070E090
:10106000C7010E94CC120F5F1F4F0C151D05B1F771
:10107000EF81E150EC31E0F4F0E0EC50F94E0C94EB
:10108000A81401E021E044E660E5CE010E94760369
:1010900098CF81E0F401808301E021E040E068E73F
:1010A000F4CFF401108201E021E048E760E0EDCFE9
:1010B00001E021E040E0FACF0F93CF93DF93EC0102
:1010C000FC01E459FF4F80818F5F808380B18F7175
:1010D0008F8301E021E048E760E0CE010E947603C3
:1010E0008F818111F3CF21E042ED6EEBCE010E94A2
:1010F00076038EED9DE0E1EEF4E03197F1F700C06C
:1011000000000197C1F701E021E040E066E9CE016F
:101110000E9476038CED95E0E1EEF4E03197F1F773
:1011200000C000000197C1F780B18F718F8301E08B
:1011300021E046E962E8CE010E9476038F8180318A
:1011400099F721E046E962E8CE010E94760380E249
:1011500093E0E1EEF4E03197F1F700C00000019771
:10116000C1F701E021E040E060E0CE010E9476039B
:1011700084EF91E0E1EEF4E03197F1F700C0000078
:101180000197C1F780B18F718F8301E021E048ECB6
:1011900060E0CE010E9476038F81982F9D7F94306E
:1011A00039F0982F9F7E9C3019F0877F803151F75E
:1011B00000E020E046E962E8CE010E9476038CED73
:1011C00095E0E1EEF4E03197F1F700C000000197FF
:1011D000C1F7DF91CF910F9108954F925F926F9277
:1011E0007F928F929F92AF92BF92CF92DF92EF92B7
:1011F000FF920F931F93CF93DF930F92CDB7DEB77C
:101200005C016C0185E7C80ED11CC6010E94DD0C93
:10121000C6010E94DA0CC6010E94DD0CC6010E94C4
:10122000DA0C182F01E021E04BE760E6C5010E94CF
:101230007603113580F3750196E0E90EF11C90E517
:10124000592EFE0131964F012BE4422EC6010E9419
:10125000DD0CC6010E94DA0C01E021E040E060E014
:10126000C5010E94760389E698E10197F1F700C075
:101270000000E9E6F8E13197F1F700C0000059827B
:10128000B401C7010E9472138CE291E08401E9E687
:10129000F8E13197F1F700C000000197C1F7C701ED
:1012A0000E94DF1389E698E10197F1F700C0000082
:1012B000E9E6F8E13197F1F700C000004982B80192
:1012C000C7010E9472138CE291E0E9E6F8E13197E0
:1012D000F1F700C000000197C1F7C7010E94DF13BA
:1012E00089E698E10197F1F700C00000E9E6F8E12E
:1012F0003197F1F700C000005982B801C7010E9480
:1013000072138CE291E0E9E6F8E13197F1F700C061
:1013100000000197C1F7C7010E94DF1389E698E139
:101320000197F1F700C00000E9E6F8E13197F1F725
:1013300000C0000088E0682E712CC6010E94DD0C00
:10134000C6010E94DA0C282F30E08C3390F083E540
:1013500090E0E9E6F8E13197F1F700C0000001976D
:10136000C1F7F1E06F1A710841F72C33310509F02C
:101370006DCF8CE38983B801C7010E9472138CE2A0
:1013800091E0E9E6F8E13197F1F700C0000001973C
:10139000C1F7C7010E94DF1389E698E10197F1F7D1
:1013A00000C00000E9E6F8E13197F1F700C0000065
:1013B00083E48983B801C7010E9472138CE291E033
:1013C000E9E6F8E13197F1F700C000000197C1F7B5
:1013D000C7010E94DF1389E698E10197F1F700C089
:1013E0000000E9E6F8E13197F1F700C000008CE376
:1013F0008983B801C7010E9472138CE291E0E9E68B
:10140000F8E13197F1F700C000000197C1F7C7017B
:101410000E94DF1389E698E10197F1F700C0000010
:10142000E9E6F8E13197F1F700C00000C5010F903F
:10143000DF91CF911F910F91FF90EF90DF90CF90B0
:10144000BF90AF909F908F907F906F905F904F90E4
:101450000C94C705CF92DF92EF92FF920F931F93E8
:10146000CF93DF93EC017C0185E7E80EF11CC70107
:101470000E94DD0CC7010E94DA0CC7010E94DD0C3E
:10148000C7010E94DA0C182FEF81E150EC3178F49B
:10149000F0E0E05FF84E0C94A81401E021E044E68F
:1014A00060E5CE010E94760380B18F718F831F3675
:1014B00020F380B18F718F8301E021E040E060E094
:1014C000CE010E9476038AEF90E0E9E6F8E13197D9
:1014D000F1F700C000000197C1F700E021E046E904
:1014E00062E8CE010E94760386E990E0E9E6F8E141
:1014F0003197F1F700C000000197C1F701E021E04A
:1015000040E060E0CE010E94760388EC90E0E9E6DE
:10151000F8E13197F1F700C000000197C1F701E051
:1015200020E046E962E8CE010E9476038AE491E079
:10153000E9E6F8E13197F1F700C000000197C1F743
:1015400001E021E040E060E0CE010E94760388ECFB
:1015500090E0E9E6F8E13197F1F700C0000001976B
:10156000C1F700E021E046E962E8CE010E9476037F
:1015700084E591E0E9E6F8E13197F1F700C0000079
:101580000197C1F701E021E040E060E0CE010E9458
:1015900076038AEF90E0E9E6F8E13197F1F700C0D1
:1015A00000000197C1F701E020E046E962E8CE01C2
:1015B0000E94760384E690E0E9E6F8E13197F1F7DE
:1015C00000C000000197C1F701E021E040E060E0C9
:1015D000CE010E9476036E01F8E7CF0ED11CC60142
:1015E0000E946C00811551F18BE992E0E9E6F8E187
:1015F0003197F1F700C000000197C1F7C7010E94C1
:10160000DD0CC7010E94DA0C843618F0CE010E946E
:101610002A0AE0B1EF71EF83E150EC31D0F7F0E04E
:10162000E45DF84E0C94A81401E021E040E068E786
:1016300038CF01E021E048E760E033CF01E021E06E
:1016400040E060E0CE010E947603C9CF01E021E0D6
:1016500040E060E0CE010E947603CE01DF91CF91A1
:101660001F910F91FF90EF90DF90CF900C94C705E2
:1016700001E021E040E068E7CE010E94760380B1FE
:101680008F718F83C6CF01E021E048E760E0F4CF9F
:10169000CF93DF93EC01FC01E158FF4F8081833051
:1016A000A9F038F48130E9F0823031F1DF91CF9147
:1016B00008958430D9F76CE871E0CE0105960E9458
:1016C0008A02CE01DF91CF910C942A0A61E671E083
:1016D000CE0105960E948A02CE01DF91CF910C9433
:1016E000B4076FE671E0CE0105960E948A02CE0132
:1016F000DF91CF910C94ED086DE771E0CE01059676
:101700000E948A02CE01DF91CF910C945C082F9247
:101710003F924F925F926F927F928F929F92AF9281
:10172000BF92CF92DF92EF92FF920F931F93CF93CE
:10173000DF9300D000D000D0CDB7DEB78D839E837D
:101740008D819E8184579F4F9C838B83AD80BE800B
:1017500095E7A90EB11CCD80DE80A8E8CA0ED11C89
:10176000ED81FE81E459FF4FFA83E9832D803E80AD
:10177000FAE82F0E311C11E04D805E802BE8420EFE
:10178000511C6D807E8089E8680E711C8D809E8062
:101790009EE7890E911CED80FE80A4E6EA0EF11C06
:1017A000AB81BC818C918115C9F00F900F900F9087
:1017B0000F900F900F90DF91CF911F910F91FF909D
:1017C000EF90DF90CF90BF90AF909F908F907F90E1
:1017D0006F905F904F903F902F90089580B18F71E0
:1017E000ED81FE818783C5010E94DD0CC5010E9449
:1017F000DA0C8B3278F0D6018C91811117C08D8173
:101800009E810E94480BF6011083A981BA818C91B8
:10181000F3018083AD81BE811796EC91E03208F030
:10182000BBC0F0E0E85BF84E0C94A8148D819E815B
:101830000E94480BD1011C93E981FA818081D20179
:101840008C93E8CF01E021E046E968E78D819E8135
:101850000E94760384E190E0E1EEF4E03197F1F745
:1018600000C000000197C1F701E021E042E362E31C
:101870008D819E810E947603AD81BE8118968D91E7
:101880009C911997FD01E80FF91FB4E0B28726C0BB
:10189000D4011C9301E021E040E06EE68D819E8141
:1018A0000E94760384E190E0E1EEF4E03197F1F7F5
:1018B00000C000000197C1F701E021E042E362E3CC
:1018C0008D819E810E947603AD81BE8118968D9197
:1018D0009C911997FD01E80FF91F12870196F701F6
:1018E000608171810E949414AD81BE8119969C9390
:1018F0008E931897E1EEF4E03197F1F700C0000005
:1019000081EE94E00197F1F700C00000A1EEB4E091
:101910001197F1F700C00000E1EEF4E03197F1F724
:1019200000C0000081EE94E00197F1F700C00000D4
:1019300037CFD4011C9201E021E04EE660E08D81BA
:101940009E810E94760384E190E0E1EEF4E031971D
:10195000F1F700C000000197C1F701E021E042E388
:1019600062E38D819E810E947603AD81BE811896CF
:101970008D919C911997FD01E80FF91FB0E186CF79
:1019800064E68D819E810E9432060ACF62E88D81D5
:101990009E810E94A70304CF01E021E040E060E0C7
:1019A0008D819E810E947603FBCEFC0160830296AE
:1019B0000C94A502FC0181810895CF93DF93EC0183
:1019C000688102960E94AE029695879596958795B6
:1019D0008983DF91CF9108950F931F93CF93DF9366
:1019E000DB01E9018C0180E090E0F80121918F0199
:1019F000211539F001968C32F1E09F0719F58BE241
:101A000091E0FD01E80FF91F1082FD013197A55DFE
:101A1000BE4F8DE238E25FE469E29CE32EE3718120
:101A2000741307C071E0C13AD70781F42083218382
:101A300022833196EA17FB0791F7DF91CF911F912F
:101A40000F910895FB012193BF01CFCF71E0C53AFB
:101A5000D70721F4908391839283EBCF71E0C93A49
:101A6000D70721F4308351836283E3CF71E0CD3A0D
:101A7000D707F9F6808381838283DBCFCF93DF930F
:101A8000EC010E94D102CE0103960E946C02CE01AD
:101A900004960E94C7001E821D8218861F821A8625
:101AA00019861C861B861E861D8681EB91E0998B0C
:101AB000888B8EED92E09B8B8A8B82E194E09D8BEC
:101AC0008C8B89EA91E09F8B8E8B81EA91E0998FD4
:101AD000888F85EA91E09B8F8A8F8DEA91E09D8FB8
:101AE0008C8FFE01ED57FD4F119211821082CE01B5
:101AF0008A579D4F0E945313CE0189579D4FDF9106
:101B0000CF910C941103FC01DC01A95FBC4F3C9107
:101B1000368F12962C91278F12969C9190A3129635
:101B20008C9181A3311511F1211549F0911539F0EE
:101B3000811105C031E032A313A214A20AC012A27F
:101B400013A2211551F19111F8CF8111F6CF31E097
:101B500034A340E030E045A336A317A2211541F19C
:101B6000911124C080A780E020E025C031E0382713
:101B70003923211101C030E012A233A314A215A20F
:101B800016A241E0322F3427592F5823352337A38B
:101B900010A6211113C080E00EC014A29115C9F245
:101BA00040E0392F8115B9F2482FD4CF10A6DBCFF2
:101BB00010A69111D8CF81A722A708959427292F85
:101BC0002823E9CFEF92FF920F931F93CF93DF93D8
:101BD0007B018A01EC01239663E475E0CE010E944B
:101BE0008A0265E475E0CE010E948A02B701CE0147
:101BF0000E948A0263E475E0CE010E948A0260E5D9
:101C000075E0CE010E948A02B801CE010E948A02CC
:101C100063E475E0CE01DF91CF911F910F91FF90AA
:101C2000EF900C948A020F931F93CF93DF93CA0116
:101C3000D801FB01EA0140E050E03191311541F05B
:101C40004F5F5F4F4C3261E0560719F54BE251E0B0
:101C5000FC01E40FF51F1082FC013197855D9E4F5A
:101C60003DE268E27FE4C9E24CE35EE3D181D21356
:101C700007C0D1E0A13ABD0771F45083518352836C
:101C80003196E817F90791F7DF91CF911F910F91E6
:101C900008953993D2CFD1E0A53ABD0721F440830E
:101CA00041834283EDCFD1E0A93ABD0721F460839F
:101CB0007183C283E5CFD1E0AD3ABD0709F7308328
:101CC00031833283DDCFCF93DF93EC010E94830D0C
:101CD0008AA1811106C08BA1811103C08CA181153D
:101CE00039F081E38F8788899989DF91CF910895B1
:101CF0008DA1811106C08EA1811103C08FA1811514
:101D000029F082E38F878A899B89EFCF88A581118B
:101D100006C089A5811103C08AA5811529F083E336
:101D20008F878C899D89E1CF8BE595E0DECFCF92BF
:101D3000DF92EF92FF920F931F93CF93DF93EC010B
:101D40000E94630E6C01888999898C159D0509F0A4
:101D5000CFC02BA12115A9F1FE01E15FFC4F20812D
:101D6000AE01455D5F4F7A018E01095A1E4F211564
:101D700019F02E893F8902C02C8D3D8D43E4B701B7
:101D80000E94EC0C288D398D42E4B801C7010E94F5
:101D9000EC0C2C8D3D8D41E4B701C8010E94EC0C88
:101DA0002C8D3D8D44E4B801C7010E94EC0CC801A4
:101DB000DF91CF911F910F91FF90EF90DF90CF9027
:101DC00008952CA12115B9F0FE01E15FFC4F20819F
:101DD000BE01655D7F4F7B018E01095A1E4F2115A3
:101DE00009F41EC12E893F8942E40E94EC0C2A8D21
:101DF0003B8D43E4CACF2AA1211509F44EC1FE014F
:101E0000E85FFC4F2081349630813596231708F423
:101E100088C0321708F041C1FE01EF5EFC4F4081DF
:101E200032972081211140C0411137C17E017BE2F0
:101E3000E70EF11C2C8D3D8D41E4B7010E94EC0CA6
:101E40008E01095A1E4F2C8D3D8D42E4B801C70109
:101E50000E94EC0C2C8D3D8D43E4B701C8010E941B
:101E6000EC0C2A8D3B8D9ECF288D398DBE01655D92
:101E70007F4F7B018E01095A1E4F4111D7C0FE01D1
:101E8000E05FFC4F4081423009F062C041E40E94B3
:101E9000EC0C2E893F8942E4B801C7010E94EC0C8A
:101EA0002C8D3D8D43E478CF2C8D3D8DBE01655D3D
:101EB0007F4F7B018E01095A1E4F411177C0FE01F1
:101EC000E05FFC4F4081423069F441E40E94EC0C39
:101ED0002C8D3D8D42E4B801C7010E94EC0C2E8987
:101EE0003F89BACF41E40E94EC0C2E893F89ADCFE7
:101EF0008A899B898C159D0509F05FC02EA121114F
:101F00002BCF2FA1211160CF2DA1211509F4C5C020
:101F1000FE01E25FFC4F208136973081231728F5C0
:101F2000399640813297208121119ECF4111B5C051
:101F30007E017BE2E70EF11C288D398D41E4B7016B
:101F40000E94EC0C8E01095A1E4F2C8D3D8DA3CFA3
:101F500041E40E94EC0C2C8D3D8D42E4B801C70198
:101F60000E94EC0C2E893F899DCF321708F095C056
:101F7000FE01EF5EFC4F408132972081211509F46C
:101F800053CF2C8D3D8DBE01655D7F4F7B018E0152
:101F9000095A1E4F41110AC0FE01E05FFC4F8081CB
:101FA00041E4823009F073C0C60190CF41E4B7012B
:101FB0000E94EC0C2E893F898DCF8C899D898C15D0
:101FC0009D0509F06AC02AA52111C6CE29A52111B7
:101FD000FBCE28A5211509F460C0FE01E85FFC4F87
:101FE000208132963081231740F537964081329711
:101FF0002081211509F49ACF288D398DBE01655DA8
:102000007F4F7B018E01095A1E4F41110FC0FE0107
:10201000E05FFC4F808141E4823031F4C60137CF6C
:102020002C8D3D8D42E4E1CEC60193CF41E4B70152
:102030000E94EC0C2E893F8990CF321770F5FE017B
:10204000EF5EFC4F80813297908191110CC081111D
:1020500024C07E017BE2E70EF11C2C8D3D8D41E416
:10206000B701C601EBCE2C8D3D8DAE01455D5F4FB6
:102070007A018E01095A1E4F81110BC0FE01E05FEB
:10208000FC4F808141E4B701823009F48DCFC60155
:102090002ACF41E4B701C6018BCF0BE515E087CE0F
:1020A000CF92DF92EF92FF920F931F93CF93DF9324
:1020B0000F92CDB7DEB78C01E12CF12C6C0184E0DE
:1020C000C80ED11CF80187819085E816F90610F03A
:1020D00080E018C0AE014F5F5F4FB701C6010E949C
:1020E000D600EFEFEE1AFE0AF80187859981891371
:1020F000E9CF813389F4818592850196F801968331
:10210000858381E00F90DF91CF911F910F91FF9018
:10211000EF90DF90CF900895823319F483859485F2
:10212000ECCF833379F685859685E7CFAF92BF9262
:10213000CF92DF92EF92FF920F931F93CF93DF9393
:10214000EC010E94970E8C01FC0101900020E9F740
:102150009F012150310959016901C81AD90ACE01DC
:102160000E945010FE0134967F01811157C06D818D
:102170007E814F85CF010E949C018F856D817E817C
:10218000813349F57A8769876F5F7F4F7E836D83DF
:102190008F8198850196C00ED11E98878F83C016B7
:1021A000D10609F546E4C7010E949C018D819E81FC
:1021B00001969E838D838F819885019698878F8362
:1021C000DF91CF911F910F91FF90EF90DF90CF9013
:1021D000BF90AF900895823319F47C876B87D4CF7A
:1021E0007E876D87D1CFF80141918F01C7010E9491
:1021F0009C016D817E816F5F7F4F7E836D838F81B8
:1022000098850196CACFF80141918F01C7010E94BC
:102210009C018D819E8101969E838D836D817E813F
:102220000A151B0581F746E4C7010E949C018F81B6
:1022300098859E838D83C4CFAF92BF92CF92DF9259
:10224000EF92FF920F931F93CF93DF930F92CDB72F
:10225000DEB77C0100E010E05C0184E0A80EB11C58
:10226000F70133966F01F7018781908508171907E9
:1022700060F00F90DF91CF911F910F91FF90EF9041
:10228000DF90CF90BF90AF900895AE014F5F5F4F4A
:10229000B801C5010E94D60069818FEC860F83309A
:1022A00028F0663431F0C6010E947C020F5F1F4F98
:1022B000DACF63E475E0C6010E948A02F7CFCF93BC
:1022C000DF93D82FC92F0E94E20D8D2F9C2FDF9115
:1022D000CF910C941C11FC01EA5EFC4F1082089512
:1022E000CF93DF93CDB7DEB72D970FB6F894DEBF4F
:1022F0000FBECDBF8C0148E050E069EFCE010196E2
:102300007C010E94D20283E0F701D80101900D9276
:102310008A95E1F7C7010E940103C8010E940203E8
:102320007894EC86FD86F801EC57FD4FFF83EE8331
:102330007801F9E7EF1AFDEFFF0AC8018C5E9C4FA8
:102340009D838C833324339428019AEE491A9CEFA1
:10235000590A3801EDE76E1AEDEF7E0A5801F7EFE2
:10236000AF1AFCEFBF0A680189EFC81A8CEFD80AD0
:1023700083E4282EF801EA57FD4FF987E8874801E2
:10238000F3EF8F1AFCEF9F0AC8018B5E9C4F9B876F
:102390008A87055F1C4FEE81FF81808191810097C4
:1023A00029F10197C1F729826C857D8588859985FA
:1023B0000E947213F2011082C7010E94870BEC8108
:1023C000FD811082F40180818111E5CFF6018081C9
:1023D0008111E1CFEA85FB858081811529F0F30128
:1023E0008081F401811116C0F80114C0C7010E9458
:1023F0006F03EC81FD813082C7010E94C705C701D0
:102400000E94870BF2018081893130F0F6018081D2
:102410008111C1CF3082BFCF811106C0F50180810B
:102420008115C1F3F301F6CF8431E0F3B4CF0F93FC
:10243000FC01DB0171836083538342832483058322
:1024400082E3868387834C9181E090E0BC0102C0E7
:10245000660F771F2A95E2F79B0101C0880F0A9546
:10246000EAF7282B242B2C930F910895FC01A281CD
:10247000B3818C91448121E030E0B90102C0660F44
:10248000771F4A95E2F7862B4581B90102C0660F96
:10249000771F4A95E2F7AB01409584238C938FE236
:1024A00095E70197F1F700C00000A281B3814C913C
:1024B0008481B90102C0660F771F8A95E2F7CB01CC
:1024C00080958423958101C0220F9A95EAF7822B8B
:1024D0008C938FE19EE40197F1F700C0000008950E
:1024E000CF92DF92EF92FF920F931F93CF93DF93E0
:1024F000FC01AB0120E030E061E070E0241735071B
:1025000069F5DF91CF911F910F91FF90EF90DF90D0
:10251000CF90089502811381D8018C91A4816B0121
:1025200002C0CC0CDD1CAA95E2F78C29A5816B01B9
:1025300002C0CC0CDD1CAA95E2F7D601A0958A2337
:10254000D8018C932196CE15DF0521F7A0E0B0E0ED
:102550002A173B0749F42F5F3F4FD0CFC0E0D0E0B0
:102560007A01E21AF30AEFCFC281D3811881848104
:102570006B0102C0CC0CDD1C8A95E2F7C601809588
:10258000812305817B0102C0EE0CFF1C0A95E2F756
:102590008E2988831196DCCFCF93DF93EC019B01CA
:1025A0006230710509F44CC04CF461157105F9F005
:1025B0006130710591F1DF91CF910895633071051C
:1025C000D1F7EA81FB8140818C8121E030E0B901C3
:1025D00002C0660F771F8A95E2F7CB019D8101C08B
:1025E000220F9A95EAF7822B8095842314C0EA8102
:1025F000FB8120814C8181E090E0BC0102C0660F2C
:10260000771F4A95E2F7262B3D8101C0880F3A9546
:10261000EAF7809582238083CECFEA81FB814081D7
:102620008C8102C0660F771F8A95E2F7CB018095F7
:1026300084239D8101C0220F9A95EAF7822BEBCF6C
:10264000CE010E943612FCCF8AB1806F8AB9E0E8D1
:10265000F0E08081816A808382E080938100109223
:102660008200089570E0709389006093880050E0C4
:1026700050938B0040938A000895FC016483FA0113
:1026800080819181009719F0019739F008956130A8
:1026900011F45F9808955F9A0895613011F45E987F
:1026A00008955E9A089584B18C6084B916BC2A9806
:1026B00084B5806484BD84B5826084BD85B5846042
:1026C00085BD0895DB01EC91EE52E43240F4F0E078
:1026D000EE0FFF1FED5FFE4F8081918108958EE622
:1026E00090E008954F925F926F927F928F929F92A7
:1026F000AF92BF92CF92DF92EF92FF920F931F9310
:10270000CF93DF93CDB7DEB728970FB6F894DEBF2F
:102710000FBECDBF2B9A24B5206424BD0E94621346
:102720008C011A821982BE016F5F7F4FCE01039622
:102730000E94E413B80180E090E00E94BC1520E004
:1027400030E040E054E46D837E838F8398876D8111
:102750007E818F8198850E944A162B013C01A3013E
:10276000920160E074E284EF9AE40E941B1520E07D
:1027700030E040E85FE34B015C01C501B4010E9419
:10278000AE146B017C01C701B6010E948D1567BDB7
:1027900028960FB6F894DEBF0FBECDBFDF91CF9164
:1027A0001F910F91FF90EF90DF90CF90BF90AF906F
:1027B0009F908F907F906F905F904F9008952B988F
:1027C00084B58F7B84BD0895FB0120813181FC019C
:1027D000318320830895FC01CB016AE070E00E9400
:1027E0009414009751F0089520813181211531050D
:1027F00041F02130310559F0019668177907A1F7AA
:102800000895AFE1BEE41197F1F700C00000BAE10E
:10281000BA95F1F700C0F0CFFC0180819181029759
:1028200048F4FFE728E381E0F15020408040E1F7E1
:1028300000C00000089580E198E00E946F0380E1ED
:1028400098E00E94C70580E198E00E94870B89E824
:1028500095E00E9496104BE451E060E571E089E854
:1028600095E00E945F1180919C0881112FC080E14A
:1028700098E00E94C70580E198E00E94870B89E8F4
:1028800095E00E9496104BE451E060E571E089E824
:1028900095E00E945F1180919C08811120C080E129
:1028A00098E00E94C70580E198E00E94870B89E8C4
:1028B00095E00E9496104BE451E060E571E089E8F4
:1028C00095E00E945F1180E090E0089584E895E033
:1028D0000E946C00811539F210929C08C4CF84E8E4
:1028E00095E00E946C008115B1F210929C08D3CF44
:1028F00089E895E00E943E0D84E895E00C946A001A
:1029000087E898E00E94AB0285E198E00E947B0294
:102910008DE895E00E94BD008CE895E00E947B0266
:1029200089E895E00C940103AA1BBB1B51E107C089
:10293000AA1FBB1FA617B70710F0A61BB70B881F4F
:10294000991F5A95A9F780959095BC01CD010895DE
:10295000EE0FFF1F0590F491E02D09945058BB270E
:10296000AA270E94C6140C9410160E94021638F072
:102970000E94091620F039F49F3F19F426F40C94B4
:10298000FF150EF4E095E7FB0C94F915E92F0E9472
:10299000211658F3BA17620773078407950720F0CA
:1029A00079F4A6F50C9443160EF4E0950B2EBA2F8D
:1029B000A02D0B01B90190010C01CA01A001112445
:1029C000FF27591B99F0593F50F4503E68F11A16F1
:1029D000F040A22F232F342F4427585FF3CF469582
:1029E00037952795A795F0405395C9F77EF41F16A4
:1029F000BA0B620B730B840BBAF09150A1F0FF0F6E
:102A0000BB1F661F771F881FC2F70EC0BA0F621F59
:102A1000731F841F48F4879577956795B795F79549
:102A20009E3F08F0B0CF9395880F08F09927EE0FDE
:102A30009795879508950E942F150C9410160E9463
:102A4000091658F00E94021640F029F45F3F29F061
:102A50000C94F91551110C9444160C94FF150E9416
:102A6000211668F39923B1F3552391F3951B550B68
:102A7000BB27AA2762177307840738F09F5F5F4F51
:102A8000220F331F441FAA1FA9F335D00E2E3AF090
:102A9000E0E832D091505040E695001CCAF72BD0A8
:102AA000FE2F29D0660F771F881FBB1F26173707F9
:102AB0004807AB07B0E809F0BB0B802DBF01FF272B
:102AC00093585F4F3AF09E3F510578F00C94F915FA
:102AD0000C9444165F3FE4F3983ED4F386957795C3
:102AE0006795B795F7959F5FC9F7880F911D9695E4
:102AF000879597F90895E1E0660F771F881FBB1F40
:102B0000621773078407BA0720F0621B730B840BEC
:102B1000BA0BEE1F88F7E09508950E94291688F0F9
:102B20009F5798F0B92F9927B751B0F0E1F0660F91
:102B3000771F881F991F1AF0BA95C9F714C0B130D2
:102B400091F00E944316B1E008950C944316672F4C
:102B5000782F8827B85F39F0B93FCCF38695779501
:102B60006795B395D9F73EF49095809570956195EA
:102B70007F4F8F4F9F4F0895E89409C097FB3EF415
:102B800090958095709561957F4F8F4F9F4F9923BA
:102B9000A9F0F92F96E9BB279395F6958795779538
:102BA0006795B795F111F8CFFAF4BB0F11F460FFF8
:102BB0001BC06F5F7F4F8F4F9F4F16C0882311F050
:102BC00096E911C0772321F09EE8872F762F05C064
:102BD000662371F096E8862F70E060E02AF09A95FF
:102BE000660F771F881FDAF7880F9695879597F9F4
:102BF000089597F99F6780E870E060E008959FEF7F
:102C000080EC089500240A94161617061806090683
:102C1000089500240A941216130614060506089552
:102C2000092E0394000C11F4882352F0BB0F40F4DA
:102C3000BF2B11F460FF04C06F5F7F4F8F4F9F4F1A
:102C4000089557FD9058440F551F59F05F3F71F09C
:102C50004795880F97FB991F61F09F3F79F0879503
:102C60000895121613061406551FF2CF4695F1DF8C
:102C700008C0161617061806991FF1CF869571051C
:102C8000610508940895E894BB2766277727CB0150
:102C900097F908950E945D160C9410160E94021672
:102CA00038F00E94091620F0952311F00C94F915C4
:102CB0000C94FF1511240C9444160E94211670F3F5
:102CC000959FC1F3950F50E0551F629FF001729FD1
:102CD000BB27F00DB11D639FAA27F00DB11DAA1FE0
:102CE000649F6627B00DA11D661F829F2227B00D2D
:102CF000A11D621F739FB00DA11D621F839FA00DB8
:102D0000611D221F749F3327A00D611D231F849F07
:102D1000600D211D822F762F6A2F11249F5750405E
:102D20009AF0F1F088234AF0EE0FFF1FBB1F661FD9
:102D3000771F881F91505040A9F79E3F510580F0A2
:102D40000C94F9150C9444165F3FE4F3983ED4F3C9
:102D5000869577956795B795F795E7959F5FC1F746
:102D6000FE2B880F911D9695879597F9089510E091
:102D7000CFE3D0E004C0FE010E94A8142196C03425
:102D8000D107C9F7F894FFCF1C051C051C05DF040B
:102D90003E05DF043E052D053E053E053E05DF04EC
:102DA0003E05DF043E052D053E053E053E053E057C
:102DB0003E053E053E052D05810781078107440735
:102DC000A3074407A3079207A307A307A307440782
:102DD000A3074407A3079207A307A307A307A30713
:102DE000A307A307A3079207490849084908410810
:102DF0005808410849085108580858085808410817
:102E000058084108580851085808580858085808E0
:102E100058085808580851085808580858085108C0
:102E2000140B140B140B4D0A570A4D0A140B190BF3
:102E3000570A570A570A4D0A570A4D0A570A190BDB
:102E4000570A570A570A570A570A570A570A190BB7
:102E5000570A570A570A190B380B380B380B260B31
:102E6000090B260B380B430B090B090B090B260B1F
:102E7000090B260B090B430B090B090B090B090B5B
:102E8000090B090B090B430B090B090B090B430B2E
:102E9000C00C480C480C480C220CCC0C220C480CE2
:102EA000990CCC0CCC0CCC0C220CCC0C220CCC0CE9
:102EB000990CCC0CCC0CCC0CCC0CCC0CCC0CCC0C85
:102EC000990CCC0CCC0CCC0C990CCC0CCC0CC60CAE
:102ED000A00A0F75007B0083008B0093009C00A567
:102EE00000AF00B900C400D000DC00E900F7000624
:102EF000011501260137014A015D01720188019F18
:102F000001B801D201EE010B022A024B026E0293BC
:102F100002BA02E40210033F03700336343637006E
:102F20004A617276697300646961676F6E616C658E
:102F300000657865637574652064696F6465006514
:102F4000786563757465207069657A6F006578656A
:102F500063757465206D6F7465757200657865635F
:102F600075746520696E74657272757074657572BA
:102F7000003E3E3E003C3C3C00284F29002D2D2DBC
:102F8000000A202020202020202020205F5F5F5F7B
:102F90005F202020202020202020202020202020F2
:102FA0005C5F5F2020202020202020202020202067
:102FB0002020202020202020205F5F0A20202020A9
:102FC000202020207C7C20202020207C7C20202091
:102FD000202020202020202020202020205C5F5F37
:102FE00020202020202020202020202020207C2085
:102FF0005F5F2F20207C20202020202020202020E8
:10300000202020202020200A2041202D2D2D2D2D74
:103010007C7C20202020207C7C2D2D2D2D2D2042DD
:10302000202D2D2D2D2D2020202020205C2D2D2DFC
:103030002D2D2043202D2D2D2D2D7C7B5F5F2020DD
:10304000207C2D2D2D2D2D204420202020202020BF
:1030500020202020200A20202020202020207C7CCE
:103060005F5F5F5F5F7C7C2020202020202020206D
:103070002020202020202020202020202020202050
:1030800020202020202020207C2020205C5F5F7CCE
:103090002020202020202020202020202020202030
:1030A000200A202020200A202020202020000A2082
:1030B0002020202020202020205F5F5F5F5F2020D5
:1030C00020202020202020202020202020205F5F82
:1030D00020202020202020202020202020202020F0
:1030E000202020205F5F5F5F5F0A202020202020BB
:1030F0002020202F20202020205C20202020202085
:1031000020202020202020207C20205C5F5F207C4D
:10311000202020202020202020202020207C7C20F7
:10312000202020207C7C20202020202020202020E7
:10313000202020202020200A2041202D2D2D2D2D43
:103140002820202020202020292D2D2D2D2D20420B
:10315000202D2D2D2D2D7C2020205F5F7D7C2D2D81
:103160002D2D2D2043202D2D2D2D2D7C7C2020201C
:1031700020207C7C2D2D2D2D2D2044202020202032
:10318000202020202020200A202020202020202055
:10319000205C5F5F5F5F5F2F2020202020202020A9
:1031A0002020202020207C5F5F2F2020207C2020DA
:1031B00020202020202020202020207C7C5F5F5F9A
:1031C0005F5F7C7C202020202020202020202020C9
:1031D00020202020200A202020200A20202020201B
:1031E00020000A202020202020202020205F5F5F58
:1031F0005F5F202020202020202020202020202051
:103200002020205F5F5F5F5F202020202020202083
:1032100020202020202020202020205F5F2F0A2037
:10322000202020202020207C7C20202020207C7C2E
:1032300020202020202020202020202020202F207F
:10324000202020205C202020202020202020202042
:10325000202020205F5F2F202020202020202020E1
:1032600020202020202020202020200A2041202D46
:103270002D2D2D2D7C7C20202020207C7C2D2D2D83
:103280002D2D2042202D2D2D2D2D282020202020B9
:103290002020292D2D2D2D2D2043202D2D2D2D2D80
:1032A0002F2020202020202D2D2D2D2D20442020AA
:1032B000202020202020202020200A202020202024
:1032C0002020207C7C5F5F5F5F5F7C7C2020202053
:1032D000202020202020202020205C5F5F5F5F5F77
:1032E0002F202020202020202020202020202020CF
:1032F00020202020202020202020202020202020CE
:103300002020202020200A202020200A20202020E9
:103310002020000A00726F626F742020203A200083
:1033200065717569706520203A20004E6F206369D1
:103330007263756974206D61746368696E67207467
:1033400068652073796D626F6C7320646574656362
:04335000746564003C
:00000001FF
